:020000040000FA
:10000000300F002009010000000000000000000087
:1000100000000000000000000000000000000000E0
:1000200000000000000000000000000000000000D0
:1000300000000000000000000000000000000000C0
:1000400000000000000000000000000000000000B0
:1000500000000000000000000000000000000000A0
:100060000000000000000000000000000000000090
:100070000000000000000000000000000000000080
:1000800000F002F800F030F80CA030C8083824184E
:100090002D18A246671EAB4654465D46AC4201D1C0
:1000A00000F022F87E460F3E0FCCB64601263342C2
:1000B00000D0FB1AA246AB4633431847F0010000BC
:1000C000000200000023002400250026103A01D37E
:1000D00078C1FBD8520700D330C100D50B60704700
:1000E0001FB51FBD10B510BD00F0ADF81146FFF7EC
:1000F000F7FF00F01BF800F0C5F803B4FFF7F2FFBC
:1001000003BC00F0CBF80000034800470348044953
:10011000044A054B704700008100000030070020B2
:10012000300F0020300B0020300B0020002400F0A6
:1001300029F8FF210131114800F07EF8FF2101313B
:100140000F4800F079F8EE200D490870BB20487088
:10015000102088709020C870087148718871032041
:10016000C87109E0002405E00549081900F01EF8EF
:10017000601CC4B2082CF7DBF4E70000000000208C
:1001800000020020002001E0411CC8B22028FBDB57
:1001900009218901034A51600349916001211160DD
:1001A0007047000000580051093D0000002102780E
:1001B000114B1A6100BF104A11680122120511404B
:1001C0009142F8D07047002102780C4B1A6100BFB1
:1001D0000A4A11680122120511409142F8D0704775
:1001E0000021054AD168017070470021034AD16897
:1001F00001707047704700000058005100700040C7
:1002000001E004C0091F0429FBD28B0701D502803D
:10021000801CC90700D00270704700290BD0C307AB
:1002200002D00270401C491E022904D3830702D564
:100230000280801C891EE3E70022EEE70022DFE750
:10024000704770477047754600F024F8AE460500C9
:1002500069465346C008C000854618B020B5FFF770
:1002600055FF60BC00274908B6460026C0C5C0C57A
:10027000C0C5C0C5C0C5C0C5C0C5C0C5403D49009A
:100280008D46704710B50446C046C0462046FFF76D
:1002900034FF10BD00487047D006002001491820E7
:1002A000ABBEFEE72600020070470000BC02000063
:0C02B00000000020300F0000C40000001F
:0400000500000109ED
:00000001FF
